{
  "_format": "hh-sol-artifact-1",
  "contractName": "Analizer",
  "sourceName": "contracts/Analizer.sol",
  "abi": [
    {
      "inputs": [
        {
          "internalType": "address",
          "name": "_oracleAddress",
          "type": "address"
        },
        {
          "internalType": "address",
          "name": "_monsterNFTAddress",
          "type": "address"
        }
      ],
      "stateMutability": "nonpayable",
      "type": "constructor"
    },
    {
      "anonymous": false,
      "inputs": [
        {
          "indexed": true,
          "internalType": "uint256",
          "name": "callId",
          "type": "uint256"
        },
        {
          "indexed": false,
          "internalType": "address",
          "name": "targetContract",
          "type": "address"
        },
        {
          "indexed": false,
          "internalType": "string",
          "name": "functionName",
          "type": "string"
        },
        {
          "indexed": false,
          "internalType": "string",
          "name": "description",
          "type": "string"
        },
        {
          "indexed": false,
          "internalType": "uint256",
          "name": "value",
          "type": "uint256"
        },
        {
          "indexed": false,
          "internalType": "uint8",
          "name": "complexity",
          "type": "uint8"
        },
        {
          "indexed": false,
          "internalType": "uint8",
          "name": "riskLevel",
          "type": "uint8"
        }
      ],
      "name": "Analized",
      "type": "event"
    },
    {
      "inputs": [
        {
          "internalType": "string",
          "name": "message",
          "type": "string"
        }
      ],
      "name": "analyze",
      "outputs": [
        {
          "internalType": "uint256",
          "name": "",
          "type": "uint256"
        }
      ],
      "stateMutability": "nonpayable",
      "type": "function"
    },
    {
      "inputs": [
        {
          "internalType": "uint256",
          "name": "",
          "type": "uint256"
        }
      ],
      "name": "callIdToTokenId",
      "outputs": [
        {
          "internalType": "uint256",
          "name": "",
          "type": "uint256"
        }
      ],
      "stateMutability": "view",
      "type": "function"
    },
    {
      "inputs": [
        {
          "internalType": "uint256",
          "name": "",
          "type": "uint256"
        }
      ],
      "name": "callers",
      "outputs": [
        {
          "internalType": "address",
          "name": "",
          "type": "address"
        }
      ],
      "stateMutability": "view",
      "type": "function"
    },
    {
      "inputs": [
        {
          "internalType": "uint256",
          "name": "callId",
          "type": "uint256"
        }
      ],
      "name": "getMessageHistory",
      "outputs": [
        {
          "components": [
            {
              "internalType": "string",
              "name": "role",
              "type": "string"
            },
            {
              "components": [
                {
                  "internalType": "string",
                  "name": "contentType",
                  "type": "string"
                },
                {
                  "internalType": "string",
                  "name": "value",
                  "type": "string"
                }
              ],
              "internalType": "struct IGaladrielOracle.Content[]",
              "name": "content",
              "type": "tuple[]"
            }
          ],
          "internalType": "struct IGaladrielOracle.Message[]",
          "name": "",
          "type": "tuple[]"
        }
      ],
      "stateMutability": "view",
      "type": "function"
    },
    {
      "inputs": [],
      "name": "monsterNFT",
      "outputs": [
        {
          "internalType": "contract IMonsterNFT",
          "name": "",
          "type": "address"
        }
      ],
      "stateMutability": "view",
      "type": "function"
    },
    {
      "inputs": [
        {
          "internalType": "uint256",
          "name": "callId",
          "type": "uint256"
        },
        {
          "internalType": "string",
          "name": "response",
          "type": "string"
        },
        {
          "internalType": "string",
          "name": "errorMessage",
          "type": "string"
        }
      ],
      "name": "onOracleFunctionResponse",
      "outputs": [],
      "stateMutability": "nonpayable",
      "type": "function"
    },
    {
      "inputs": [
        {
          "internalType": "uint256",
          "name": "callId",
          "type": "uint256"
        },
        {
          "components": [
            {
              "internalType": "string",
              "name": "id",
              "type": "string"
            },
            {
              "internalType": "bytes",
              "name": "content",
              "type": "bytes"
            },
            {
              "internalType": "string",
              "name": "functionName",
              "type": "string"
            },
            {
              "internalType": "string",
              "name": "functionArguments",
              "type": "string"
            },
            {
              "internalType": "uint64",
              "name": "created",
              "type": "uint64"
            },
            {
              "internalType": "string",
              "name": "model",
              "type": "string"
            },
            {
              "internalType": "string",
              "name": "systemFingerprint",
              "type": "string"
            },
            {
              "internalType": "string",
              "name": "object",
              "type": "string"
            },
            {
              "internalType": "uint32",
              "name": "completionTokens",
              "type": "uint32"
            },
            {
              "internalType": "uint32",
              "name": "promptTokens",
              "type": "uint32"
            },
            {
              "internalType": "uint32",
              "name": "totalTokens",
              "type": "uint32"
            }
          ],
          "internalType": "struct IGaladrielOracle.OpenAiResponse",
          "name": "response",
          "type": "tuple"
        },
        {
          "internalType": "string",
          "name": "errorMessage",
          "type": "string"
        }
      ],
      "name": "onOracleOpenAiLlmResponse",
      "outputs": [],
      "stateMutability": "nonpayable",
      "type": "function"
    },
    {
      "inputs": [],
      "name": "oracleAddress",
      "outputs": [
        {
          "internalType": "address",
          "name": "",
          "type": "address"
        }
      ],
      "stateMutability": "view",
      "type": "function"
    },
    {
      "inputs": [
        {
          "internalType": "address",
          "name": "newMonsterNFTAddress",
          "type": "address"
        }
      ],
      "name": "setMonsterNFTAddress",
      "outputs": [],
      "stateMutability": "nonpayable",
      "type": "function"
    },
    {
      "inputs": [
        {
          "internalType": "address",
          "name": "newOracleAddress",
          "type": "address"
        }
      ],
      "name": "setOracleAddress",
      "outputs": [],
      "stateMutability": "nonpayable",
      "type": "function"
    }
  ],
  "bytecode": "0x608034608657601f611ea938819003918201601f19168301916001600160401b03831184841017608b578084926040948552833981010312608657604b602060458360a1565b920160a1565b600080546001600160a01b039384166001600160a01b03199182161790915560018054929093169116179055604051611df490816100b58239f35b600080fd5b634e487b7160e01b600052604160045260246000fd5b51906001600160a01b038216820360865756fe608080604052600436101561001357600080fd5b60003560e01c9081634629d290146110d3575080634c69c00f1461109857806354a470fc14610df0578063678a101314610dc95780637397454d14610d5b578063930fc25314610d2f578063a1a0357314610129578063a4c17a44146100ee578063a89ae4ba146100c75763aa03fa3d1461008d57600080fd5b346100c25760203660031901126100c257600435600052600560205260206001600160a01b0360406000205416604051908152f35b600080fd5b346100c25760003660031901126100c25760206001600160a01b0360005416604051908152f35b346100c25760203660031901126100c2576004356001600160a01b0381168091036100c2576001600160a01b03196001541617600155600080f35b346100c25760203660031901126100c25760043567ffffffffffffffff81116100c25761015a903690600401611340565b6004549060018201808311610c24576004556040519161017983611293565b6001835260005b60208110610d1857506040519261019684611293565b6020604051946101a586611293565b60048652633ab9b2b960e11b8287015285815201908152835167ffffffffffffffff811161075b576101d8600254611a3b565b601f8111610cc9575b50602094601f8211600114610c4557610216929394958291600092610c3a575b50508160011b916000199060031b1c19161790565b6002555b5180519068010000000000000000821161075b5760035482600355808310610ba6575b50602001906003600052600080516020611d9f833981519152916000905b82821061096757858561037f60e160405180947f596f75206172652061206372656174697665206469726563746f7220696e206160208301527f2067616d6520636f6d70616e7920616e64206b6e6f776e20617320612074616c60408301527f656e74656420736f6c6964697479206465762e20416e616c797a65207468697360608301527f207472616e73616374696f6e20616e6420637265617465206d6f6e737465722060808301527f66726f6d20636f64652e205468656e20657374696d61746520636f6d706c657860a08301527f69747920616e642061747461636b20706172616d206f66206d6f6e737465722e60c0830152600160fd1b60e083015261036f815180926020868601910161136f565b81010360c18101855201836112cb565b60405161038b81611293565b60405161039781611293565b60048152631d195e1d60e21b6020820152815260208101928352600354156109515760036000525191825167ffffffffffffffff811161075b576103e9600080516020611d9f83398151915254611a3b565b601f81116108f5575b506020601f82116001146108575781906104249394956000926107715750508160011b916000199060031b1c19161790565b600080516020611d9f833981519152555b5190815167ffffffffffffffff811161075b577fc2575a0e9e593c00f959f8c92f12db2869c3395a3b0502d05e2516446f71f85c906104748254611a3b565b601f81116107fe575b506020601f821160011461077c5781906104af9394956000926107715750508160011b916000199060031b1c19161790565b90555b8060005260056020526040600020336001600160a01b03198254161790556001600160a01b03600054166040516101a0810181811067ffffffffffffffff82111761075b576000926020928261070a9360405261050e81611293565b600b81526a6770742d342d747572626f60a81b6101c0830152815260158482015260405161053b816112af565b85815260408201526103e860608201526015608082015260405161055e81611293565b600f81527f7b2274797065223a2274657874227d00000000000000000000000000000000008582015260a08201528460c082015260405161059e816112af565b85815260e0820152600a61010082015260326101208201526040516105c2816112af565b8581526101408201526040516105d7816112af565b8581526101608201526040516105ec816112af565b858152610180820152604051948580948193633c38a5f560e01b83528960048401526040602484015261062d81516101a060448601526101e4850190611392565b88820151850b60648501526101806106f76106e16106b361069361066360408801519660431997888c83030160848d0152611392565b63ffffffff60608901511660a48b015260808801518b0b60c48b015260a0880151878b83030160e48c0152611392565b60c08701516101048a015260e0870151868a8303016101248b0152611392565b61010086015161014489015261012086015161016489015261014086015185898303016101848a0152611392565b61016085015184888303016101a4890152611392565b92015190848303016101c4850152611392565b03925af1801561074f57610724575b602082604051908152f35b602090813d8311610748575b61073a81836112cb565b810103126100c25781610719565b503d610730565b6040513d6000823e3d90fd5b634e487b7160e01b600052604160045260246000fd5b015190508580610201565b601f19821690836000527f1f1d267ea1a86dfdb3c46b45b174495d9d2a0eb5937172d25a0ddb440647b7759160005b8181106107e6575095836001959697106107cd575b505050811b0190556104b2565b015160001960f88460031b161c191690558480806107c0565b9192602060018192868b0151815501940192016107ab565b61084790836000527f1f1d267ea1a86dfdb3c46b45b174495d9d2a0eb5937172d25a0ddb440647b775601f840160051c8101916020851061084d575b601f0160051c0190611bc8565b8461047d565b909150819061083a565b601f19821690600080516020611d9f8339815191526000527f2584db4a68aa8b172f70bc04e2e74541617c003374de6eb4b295e823e5beab019160005b8181106108dd575095836001959697106108c4575b505050811b01600080516020611d9f83398151915255610435565b015160001960f88460031b161c191690558480806108a9565b9192602060018192868b015181550194019201610894565b61094b90600080516020611d9f8339815191526000527f2584db4a68aa8b172f70bc04e2e74541617c003374de6eb4b295e823e5beab01601f840160051c8101916020851061084d57601f0160051c0190611bc8565b846103f2565b634e487b7160e01b600052603260045260246000fd5b8051805180519067ffffffffffffffff821161075b576109878754611a3b565b601f8111610b74575b50602090601f8311600114610b075791806109c59260209594600092610afc5750508160011b916000199060031b1c19161790565b86555b015180519067ffffffffffffffff821161075b576109e96001870154611a3b565b601f8111610abc575b50602090601f8311600114610a475792610a2b83600294602094600197600092610a3c5750508160011b916000199060031b1c19161790565b848801555b0194019101909261025b565b015190508c80610201565b906001870160005260206000209160005b601f1985168110610aa4575083602093600196938793600297601f19811610610a8b575b505050811b0184880155610a30565b015160001960f88460031b161c191690558b8080610a7c565b91926020600181928685015181550194019201610a58565b610aec906001880160005260206000206005601f8601811c82019260208710610af2575b601f01901c0190611bc8565b886109f2565b9192508291610ae0565b015190508b80610201565b908760005260206000209160005b601f1985168110610b5c575091839160019360209695601f19811610610b43575b505050811b0186556109c8565b015160001960f88460031b161c191690558a8080610b36565b91926020600181928685015181550194019201610b15565b610ba0908860005260206000206005601f8601811c82019260208710610af257601f01901c0190611bc8565b89610990565b7f7fffffffffffffffffffffffffffffffffffffffffffffffffffffffffffffff8082168203610c245783168303610c24576003600052600080516020611d9f8339815191529060011b8101908360011b015b818110610c06575061023d565b80610c12600292611bdf565b610c1e60018201611bdf565b01610bf9565b634e487b7160e01b600052601160045260246000fd5b015190508680610201565b601f1982169560026000527f405787fa12a823e0f2b7631cc41b3ba8828b3321ca811111fa75cd3aa3bb5ace9160005b888110610cb157508360019596979810610c98575b505050811b0160025561021a565b015160001960f88460031b161c19169055858080610c8a565b91926020600181928685015181550194019201610c75565b610d129060026000527f405787fa12a823e0f2b7631cc41b3ba8828b3321ca811111fa75cd3aa3bb5ace601f840160051c8101916020851061084d57601f0160051c0190611bc8565b856101e1565b602090610d23611a15565b82828701015201610180565b346100c25760203660031901126100c25760043560005260066020526020604060002054604051908152f35b346100c25760603660031901126100c25767ffffffffffffffff6024358181116100c257610d8d903690600401611340565b6044359182116100c257610da8610dc7923690600401611340565b90610dbf6001600160a01b036000541633146113b7565b600435611b1a565b005b346100c25760003660031901126100c25760206001600160a01b0360015416604051908152f35b346100c2576020806003193601126100c25760405190610e0f82611293565b6001918281528160005b818110611082575050604051610e2e81611293565b604051906000916002928160025491610e4683611a3b565b92838352888a82169182600014611065575050600114611007575b610e6d925003826112cb565b81526003549167ffffffffffffffff831161075b5760059593959260405191610e9b878360051b01846112cb565b8183528683016003600052600080516020611d9f8339815191526000915b848310610fca57505050505084820152610ed285611a2e565b52610edc84611a2e565b506040519280840190808552855180925260408501928160408460051b8801019701936000915b848310610f105787890388f35b9091929394958098603f198982030184528588519181610f398451604084526040840190611392565b9301519082818503910152805180845282840190838082891b87010193019460005b87838210610f7e5750505050508192509801930193019194939290979597610f03565b919395610fb881929496601f1987820301895289519083610fa88351604084526040840190611392565b9201519084818403910152611392565b970195019101918a9495939192610f5b565b97838a829c9a604051610fdc81611293565b610fe586611a75565b8152610ff2858701611a75565b83820152815201920192019190999799610eb9565b5050600260005281867f405787fa12a823e0f2b7631cc41b3ba8828b3321ca811111fa75cd3aa3bb5ace896000915b85831061104c575050610e6d9350820101610e61565b8091929450548385880101520191018790898593611036565b60ff191684820152610e6d94151560051b8401019150610e619050565b61108a611a15565b828285010152018290610e19565b346100c25760203660031901126100c2576004356001600160a01b0381168091036100c2576001600160a01b03196000541617600055600080f35b346100c257600319906060368301126100c25760243567ffffffffffffffff928382116100c257610160809183360301126100c25782018281108482111761075b5760405280600401358381116100c2576111349060043691840101611340565b825260248101358381116100c2578101366023820112156100c257611163903690602460048201359101611309565b602083015260448101358381116100c2576111849060043691840101611340565b604083015260648101358381116100c2576111a59060043691840101611340565b6060830152608481013583811681036100c257608083015260a48101358381116100c2576111d99060043691840101611340565b60a083015260c48101358381116100c2576111fa9060043691840101611340565b60c083015260e4810135908382116100c257610144611257916112266101409460043691840101611340565b60e0860152611238610104820161135e565b61010086015261124b610124820161135e565b6101208601520161135e565b9101526044359081116100c257611275610dc7913690600401611340565b61128b6001600160a01b036000541633146113b7565b60043561142c565b6040810190811067ffffffffffffffff82111761075b57604052565b6020810190811067ffffffffffffffff82111761075b57604052565b90601f8019910116810190811067ffffffffffffffff82111761075b57604052565b67ffffffffffffffff811161075b57601f01601f191660200190565b929192611315826112ed565b9161132360405193846112cb565b8294818452818301116100c2578281602093846000960137010152565b9080601f830112156100c25781602061135b93359101611309565b90565b359063ffffffff821682036100c257565b60005b8381106113825750506000910152565b8181015183820152602001611372565b906020916113ab8151809281855285808601910161136f565b601f01601f1916010190565b156113be57565b60405162461bcd60e51b815260206004820152602260248201527f4f6e6c79206f7261636c652063616e2063616c6c20746869732066756e63746960448201526137b760f11b6064820152608490fd5b6040519061141b82611293565b6002825261060f60f31b6020830152565b9060008060405161143c81611293565b60048152631d195cdd60e21b602082015260405161148581611477602082019463104c13eb60e21b8652602060248401526044830190611392565b03601f1981018352826112cb565b51906a636f6e736f6c652e6c6f675afa5051611a125760405160c0810181811067ffffffffffffffff82111761075b576040523081526114c361140e565b60208201526114d061140e565b60408201526000606082015260006080820152600060a082015260405160e0810181811067ffffffffffffffff82111761075b578060405261151181611293565b600c81526b2bb0ba32b910223930b3b7b760a11b610100830152815260405161153981611293565b602081527f4120647261676f6e20746861742063616e20636f6e74726f6c2077617465722e60208201526020820152606460408201526000606082015260006080820152600060a0820152600060c08201526040519161159883611293565b8252602082019081526001600160a01b03906000602083600154168683526005825260248560408520541660405194859384926340d097c360e01b845260048401525af190811561074f576000916119df575b506020600091868352600682528060408420558460015416845191604051948580948193630f0469f160e31b835260048301526040602483015267ffffffffffffffff60c061165f61164a845160e06044880152610124870190611392565b848b0151868203604319016064880152611392565b92604081015160848601528260608201511660a48601528260808201511660c48601528260a08201511660e486015201511661010483015203925af1801561074f576119b4575b5060206118ef600092518484541690611891608e825186840151936116ce6040820151611c28565b906116e667ffffffffffffffff606083015116611c28565b6116fd67ffffffffffffffff608084015116611c28565b9061172467ffffffffffffffff60c061171b8260a088015116611c28565b95015116611c28565b936040519889967f47656e65726174652061206d6f6e7374657220696d6167652066726f6d2074688e8901527f697320706172616d6574657273206e616d653a20000000000000000000000000604089015261178a81518f92819360548c01910161136f565b87017f206465736372697074696f6e3a2000000000000000000000000000000000000060548201526117c682518f93819460628501910161136f565b01680103432b0b63a341d160bd1b60628201526117ec825180938f606b8501910161136f565b016801030ba3a30b1b59d160bd1b606b820152611812825180938e60748501910161136f565b01690103232b332b739b29d160b51b6074820152611839825180938d607e8501910161136f565b016701039b832b2b21d160c51b607e82015261185e825180938c60868501910161136f565b016701036b0b3b4b19d160c51b6086820152611882825180938b878501910161136f565b0103606e8101845201826112cb565b604051948580948193634b04236b60e01b83528b600484015260606024840152601060648401527f696d6167655f67656e65726174696f6e00000000000000000000000000000000608484015260a0604484015260a4830190611392565b03925af1801561074f57611989575b507f99111dadf76862593d17c2f533c48e19437b223eca8858a44786124fa592ce9d915190815116602082015191604081015160608201519161197460ff60a0816080850151169301511692611966604051978897885260c0602089015260c0880190611392565b908682036040880152611392565b926060850152608084015260a08301520390a2565b602090813d83116119ad575b61199f81836112cb565b810103126100c257386118fe565b503d611995565b602090813d83116119d8575b6119ca81836112cb565b810103126100c257386116a6565b503d6119c0565b90506020813d602011611a0a575b816119fa602093836112cb565b810103126100c2575160206115eb565b3d91506119ed565b50565b60405190611a2282611293565b60606020838281520152565b8051156109515760200190565b90600182811c92168015611a6b575b6020831014611a5557565b634e487b7160e01b600052602260045260246000fd5b91607f1691611a4a565b90604051918260008254611a8881611a3b565b90818452602094600191600181169081600014611af85750600114611ab9575b505050611ab7925003836112cb565b565b600090815285812095935091905b818310611ae0575050611ab79350820101388080611aa8565b85548884018501529485019487945091830191611ac7565b92505050611ab794925060ff191682840152151560051b820101388080611aa8565b90929151611bc3576000908152600660205260408120546001600160a01b036001541690813b15611bbf57938291611b779495836040518097819582946364c0631360e11b84526004840152604060248401526044830190611392565b03925af18015611bb257611b89575050565b67ffffffffffffffff8211611b9e5750604052565b634e487b7160e01b81526041600452602490fd5b50604051903d90823e3d90fd5b8280fd5b509050565b818110611bd3575050565b60008155600101611bc8565b611be98154611a3b565b9081611bf3575050565b81601f60009311600114611c05575055565b908083918252611c24601f60208420940160051c840160018501611bc8565b5555565b806000917a184f03e93ff9f4daa797ed6e38ed64bf6a1f01000000000000000080821015611d90575b506d04ee2d6d415b85acef810000000080831015611d81575b50662386f26fc1000080831015611d72575b506305f5e10080831015611d63575b5061271080831015611d54575b506064821015611d44575b600a80921015611d3a575b6001908160216001860195611cc2876112ed565b96611cd060405198896112cb565b808852611cdf601f19916112ed565b01366020890137860101905b611cf7575b5050505090565b600019019083907f30313233343536373839616263646566000000000000000000000000000000008282061a835304918215611d3557919082611ceb565b611cf0565b9160010191611cae565b9190606460029104910191611ca3565b60049193920491019138611c98565b60089193920491019138611c8b565b60109193920491019138611c7c565b60209193920491019138611c6a565b604093508104915038611c5156fec2575a0e9e593c00f959f8c92f12db2869c3395a3b0502d05e2516446f71f85ba26469706673582212207ddd738c9181a69a72a49f8e780410a7e206117415a26ccec999621f4fa8598a64736f6c63430008190033",
  "linkReferences": {},
  "deployedLinkReferences": {}
}