{
  "_format": "hh-sol-artifact-1",
  "contractName": "MonsterNFT",
  "sourceName": "contracts/MonsterNFT.sol",
  "abi": [
    {
      "inputs": [],
      "stateMutability": "nonpayable",
      "type": "constructor"
    },
    {
      "inputs": [
        {
          "internalType": "address",
          "name": "sender",
          "type": "address"
        },
        {
          "internalType": "uint256",
          "name": "tokenId",
          "type": "uint256"
        },
        {
          "internalType": "address",
          "name": "owner",
          "type": "address"
        }
      ],
      "name": "ERC721IncorrectOwner",
      "type": "error"
    },
    {
      "inputs": [
        {
          "internalType": "address",
          "name": "operator",
          "type": "address"
        },
        {
          "internalType": "uint256",
          "name": "tokenId",
          "type": "uint256"
        }
      ],
      "name": "ERC721InsufficientApproval",
      "type": "error"
    },
    {
      "inputs": [
        {
          "internalType": "address",
          "name": "approver",
          "type": "address"
        }
      ],
      "name": "ERC721InvalidApprover",
      "type": "error"
    },
    {
      "inputs": [
        {
          "internalType": "address",
          "name": "operator",
          "type": "address"
        }
      ],
      "name": "ERC721InvalidOperator",
      "type": "error"
    },
    {
      "inputs": [
        {
          "internalType": "address",
          "name": "owner",
          "type": "address"
        }
      ],
      "name": "ERC721InvalidOwner",
      "type": "error"
    },
    {
      "inputs": [
        {
          "internalType": "address",
          "name": "receiver",
          "type": "address"
        }
      ],
      "name": "ERC721InvalidReceiver",
      "type": "error"
    },
    {
      "inputs": [
        {
          "internalType": "address",
          "name": "sender",
          "type": "address"
        }
      ],
      "name": "ERC721InvalidSender",
      "type": "error"
    },
    {
      "inputs": [
        {
          "internalType": "uint256",
          "name": "tokenId",
          "type": "uint256"
        }
      ],
      "name": "ERC721NonexistentToken",
      "type": "error"
    },
    {
      "inputs": [
        {
          "internalType": "address",
          "name": "owner",
          "type": "address"
        }
      ],
      "name": "OwnableInvalidOwner",
      "type": "error"
    },
    {
      "inputs": [
        {
          "internalType": "address",
          "name": "account",
          "type": "address"
        }
      ],
      "name": "OwnableUnauthorizedAccount",
      "type": "error"
    },
    {
      "anonymous": false,
      "inputs": [
        {
          "indexed": true,
          "internalType": "address",
          "name": "owner",
          "type": "address"
        },
        {
          "indexed": true,
          "internalType": "address",
          "name": "approved",
          "type": "address"
        },
        {
          "indexed": true,
          "internalType": "uint256",
          "name": "tokenId",
          "type": "uint256"
        }
      ],
      "name": "Approval",
      "type": "event"
    },
    {
      "anonymous": false,
      "inputs": [
        {
          "indexed": true,
          "internalType": "address",
          "name": "owner",
          "type": "address"
        },
        {
          "indexed": true,
          "internalType": "address",
          "name": "operator",
          "type": "address"
        },
        {
          "indexed": false,
          "internalType": "bool",
          "name": "approved",
          "type": "bool"
        }
      ],
      "name": "ApprovalForAll",
      "type": "event"
    },
    {
      "anonymous": false,
      "inputs": [
        {
          "indexed": true,
          "internalType": "address",
          "name": "to",
          "type": "address"
        },
        {
          "indexed": true,
          "internalType": "uint256",
          "name": "tokenId",
          "type": "uint256"
        }
      ],
      "name": "Mint",
      "type": "event"
    },
    {
      "anonymous": false,
      "inputs": [
        {
          "indexed": true,
          "internalType": "address",
          "name": "previousOwner",
          "type": "address"
        },
        {
          "indexed": true,
          "internalType": "address",
          "name": "newOwner",
          "type": "address"
        }
      ],
      "name": "OwnershipTransferred",
      "type": "event"
    },
    {
      "anonymous": false,
      "inputs": [
        {
          "indexed": true,
          "internalType": "uint256",
          "name": "tokenId",
          "type": "uint256"
        },
        {
          "indexed": false,
          "internalType": "string",
          "name": "name",
          "type": "string"
        },
        {
          "indexed": false,
          "internalType": "string",
          "name": "description",
          "type": "string"
        },
        {
          "indexed": false,
          "internalType": "uint256",
          "name": "health",
          "type": "uint256"
        },
        {
          "indexed": false,
          "internalType": "uint64",
          "name": "attack",
          "type": "uint64"
        },
        {
          "indexed": false,
          "internalType": "uint64",
          "name": "defense",
          "type": "uint64"
        },
        {
          "indexed": false,
          "internalType": "uint64",
          "name": "speed",
          "type": "uint64"
        },
        {
          "indexed": false,
          "internalType": "uint64",
          "name": "magic",
          "type": "uint64"
        }
      ],
      "name": "SetParameters",
      "type": "event"
    },
    {
      "anonymous": false,
      "inputs": [
        {
          "indexed": true,
          "internalType": "address",
          "name": "from",
          "type": "address"
        },
        {
          "indexed": true,
          "internalType": "address",
          "name": "to",
          "type": "address"
        },
        {
          "indexed": true,
          "internalType": "uint256",
          "name": "tokenId",
          "type": "uint256"
        }
      ],
      "name": "Transfer",
      "type": "event"
    },
    {
      "inputs": [
        {
          "internalType": "address",
          "name": "to",
          "type": "address"
        },
        {
          "internalType": "uint256",
          "name": "tokenId",
          "type": "uint256"
        }
      ],
      "name": "approve",
      "outputs": [],
      "stateMutability": "nonpayable",
      "type": "function"
    },
    {
      "inputs": [
        {
          "internalType": "address",
          "name": "owner",
          "type": "address"
        }
      ],
      "name": "balanceOf",
      "outputs": [
        {
          "internalType": "uint256",
          "name": "",
          "type": "uint256"
        }
      ],
      "stateMutability": "view",
      "type": "function"
    },
    {
      "inputs": [
        {
          "internalType": "uint256",
          "name": "tokenId",
          "type": "uint256"
        }
      ],
      "name": "getApproved",
      "outputs": [
        {
          "internalType": "address",
          "name": "",
          "type": "address"
        }
      ],
      "stateMutability": "view",
      "type": "function"
    },
    {
      "inputs": [
        {
          "internalType": "address",
          "name": "owner",
          "type": "address"
        },
        {
          "internalType": "address",
          "name": "operator",
          "type": "address"
        }
      ],
      "name": "isApprovedForAll",
      "outputs": [
        {
          "internalType": "bool",
          "name": "",
          "type": "bool"
        }
      ],
      "stateMutability": "view",
      "type": "function"
    },
    {
      "inputs": [
        {
          "internalType": "uint256",
          "name": "",
          "type": "uint256"
        }
      ],
      "name": "monsterImages",
      "outputs": [
        {
          "internalType": "string",
          "name": "",
          "type": "string"
        }
      ],
      "stateMutability": "view",
      "type": "function"
    },
    {
      "inputs": [
        {
          "internalType": "uint256",
          "name": "",
          "type": "uint256"
        }
      ],
      "name": "monsterParameters",
      "outputs": [
        {
          "internalType": "string",
          "name": "name",
          "type": "string"
        },
        {
          "internalType": "string",
          "name": "description",
          "type": "string"
        },
        {
          "internalType": "uint256",
          "name": "health",
          "type": "uint256"
        },
        {
          "internalType": "uint64",
          "name": "attack",
          "type": "uint64"
        },
        {
          "internalType": "uint64",
          "name": "defense",
          "type": "uint64"
        },
        {
          "internalType": "uint64",
          "name": "speed",
          "type": "uint64"
        },
        {
          "internalType": "uint64",
          "name": "magic",
          "type": "uint64"
        }
      ],
      "stateMutability": "view",
      "type": "function"
    },
    {
      "inputs": [],
      "name": "name",
      "outputs": [
        {
          "internalType": "string",
          "name": "",
          "type": "string"
        }
      ],
      "stateMutability": "view",
      "type": "function"
    },
    {
      "inputs": [],
      "name": "owner",
      "outputs": [
        {
          "internalType": "address",
          "name": "",
          "type": "address"
        }
      ],
      "stateMutability": "view",
      "type": "function"
    },
    {
      "inputs": [
        {
          "internalType": "uint256",
          "name": "tokenId",
          "type": "uint256"
        }
      ],
      "name": "ownerOf",
      "outputs": [
        {
          "internalType": "address",
          "name": "",
          "type": "address"
        }
      ],
      "stateMutability": "view",
      "type": "function"
    },
    {
      "inputs": [],
      "name": "renounceOwnership",
      "outputs": [],
      "stateMutability": "nonpayable",
      "type": "function"
    },
    {
      "inputs": [
        {
          "internalType": "address",
          "name": "to",
          "type": "address"
        }
      ],
      "name": "safeMint",
      "outputs": [
        {
          "internalType": "uint256",
          "name": "",
          "type": "uint256"
        }
      ],
      "stateMutability": "nonpayable",
      "type": "function"
    },
    {
      "inputs": [
        {
          "internalType": "address",
          "name": "from",
          "type": "address"
        },
        {
          "internalType": "address",
          "name": "to",
          "type": "address"
        },
        {
          "internalType": "uint256",
          "name": "tokenId",
          "type": "uint256"
        }
      ],
      "name": "safeTransferFrom",
      "outputs": [],
      "stateMutability": "nonpayable",
      "type": "function"
    },
    {
      "inputs": [
        {
          "internalType": "address",
          "name": "from",
          "type": "address"
        },
        {
          "internalType": "address",
          "name": "to",
          "type": "address"
        },
        {
          "internalType": "uint256",
          "name": "tokenId",
          "type": "uint256"
        },
        {
          "internalType": "bytes",
          "name": "data",
          "type": "bytes"
        }
      ],
      "name": "safeTransferFrom",
      "outputs": [],
      "stateMutability": "nonpayable",
      "type": "function"
    },
    {
      "inputs": [
        {
          "internalType": "address",
          "name": "operator",
          "type": "address"
        },
        {
          "internalType": "bool",
          "name": "approved",
          "type": "bool"
        }
      ],
      "name": "setApprovalForAll",
      "outputs": [],
      "stateMutability": "nonpayable",
      "type": "function"
    },
    {
      "inputs": [
        {
          "internalType": "uint256",
          "name": "tokenId",
          "type": "uint256"
        },
        {
          "internalType": "string",
          "name": "image",
          "type": "string"
        }
      ],
      "name": "setImage",
      "outputs": [],
      "stateMutability": "nonpayable",
      "type": "function"
    },
    {
      "inputs": [
        {
          "internalType": "uint256",
          "name": "tokenId",
          "type": "uint256"
        },
        {
          "components": [
            {
              "internalType": "string",
              "name": "name",
              "type": "string"
            },
            {
              "internalType": "string",
              "name": "description",
              "type": "string"
            },
            {
              "internalType": "uint256",
              "name": "health",
              "type": "uint256"
            },
            {
              "internalType": "uint64",
              "name": "attack",
              "type": "uint64"
            },
            {
              "internalType": "uint64",
              "name": "defense",
              "type": "uint64"
            },
            {
              "internalType": "uint64",
              "name": "speed",
              "type": "uint64"
            },
            {
              "internalType": "uint64",
              "name": "magic",
              "type": "uint64"
            }
          ],
          "internalType": "struct IMonsterNFT.Parameters",
          "name": "params",
          "type": "tuple"
        }
      ],
      "name": "setParameters",
      "outputs": [
        {
          "internalType": "uint256",
          "name": "",
          "type": "uint256"
        }
      ],
      "stateMutability": "nonpayable",
      "type": "function"
    },
    {
      "inputs": [
        {
          "internalType": "bytes4",
          "name": "interfaceId",
          "type": "bytes4"
        }
      ],
      "name": "supportsInterface",
      "outputs": [
        {
          "internalType": "bool",
          "name": "",
          "type": "bool"
        }
      ],
      "stateMutability": "view",
      "type": "function"
    },
    {
      "inputs": [],
      "name": "symbol",
      "outputs": [
        {
          "internalType": "string",
          "name": "",
          "type": "string"
        }
      ],
      "stateMutability": "view",
      "type": "function"
    },
    {
      "inputs": [
        {
          "internalType": "uint256",
          "name": "tokenId",
          "type": "uint256"
        }
      ],
      "name": "tokenURI",
      "outputs": [
        {
          "internalType": "string",
          "name": "",
          "type": "string"
        }
      ],
      "stateMutability": "view",
      "type": "function"
    },
    {
      "inputs": [
        {
          "internalType": "address",
          "name": "from",
          "type": "address"
        },
        {
          "internalType": "address",
          "name": "to",
          "type": "address"
        },
        {
          "internalType": "uint256",
          "name": "tokenId",
          "type": "uint256"
        }
      ],
      "name": "transferFrom",
      "outputs": [],
      "stateMutability": "nonpayable",
      "type": "function"
    },
    {
      "inputs": [
        {
          "internalType": "address",
          "name": "newOwner",
          "type": "address"
        }
      ],
      "name": "transferOwnership",
      "outputs": [],
      "stateMutability": "nonpayable",
      "type": "function"
    }
  ],
  "bytecode": "0x6080346103705760406001600160401b038282018181118482101761035a578252600a835260209269135bdb9cdd195c93919560b21b848201528251918383018381108282111761035a578452600492838152631353919560e21b86820152825190828211610345576000968754926001958685811c9516801561033b575b83861014610328578190601f958681116102da575b50839086831160011461027b578b92610270575b5050600019600383901b1c191690861b1788555b815193841161025d5784548581811c91168015610253575b828210146102405790818486959493116101ee575b508092841160011461018b57508792610180575b5050600019600383901b1c191690821b1790555b331561016b575060068054336001600160a01b03198216811790925591519290916001600160a01b0316907f8be0079c531659141344cd1fd0a4f28419497f9722a3daafe3b4186f6b6457e09080a361201b90816103768239f35b826024925191631e4fbdf760e01b8352820152fd5b0151905038806100fc565b9190859450601f198416858a52838a20938a905b8282106101d557505084116101bc575b505050811b019055610110565b015160001960f88460031b161c191690553880806101af565b848401518655889790950194938401939081019061019f565b90919293508589528189208480870160051c820192848810610237575b9187968992969594930160051c01915b8281106102295750506100e8565b8b815587965088910161021b565b9250819261020b565b634e487b7160e01b895260228752602489fd5b90607f16906100d3565b634e487b7160e01b885260418652602488fd5b0151905038806100a7565b8b8052848c208994509190601f1984168d5b878282106102c457505084116102ab575b505050811b0188556100bb565b015160001960f88460031b161c1916905538808061029e565b8385015186558c9790950194938401930161028d565b9091508a8052838b208680850160051c82019286861061031f575b918a91869594930160051c01915b828110610311575050610093565b8d81558594508a9101610303565b925081926102f5565b634e487b7160e01b8a526022885260248afd5b94607f169461007e565b604185634e487b7160e01b6000525260246000fd5b634e487b7160e01b600052604160045260246000fd5b600080fdfe6080604052600436101561001257600080fd5b60003560e01c806301ffc9a71461016757806306fdde0314610162578063081812fc1461015d578063095ea7b31461015857806323b872dd1461015357806340d097c31461014e57806342842e0e146101495780636352211e1461014457806370a082311461013f578063715018a61461013a57806378234f88146101355780637b8b907a146101305780638da5cb5b1461012b57806395d89b4114610126578063992ae41f14610121578063a22cb4651461011c578063b88d4fde14610117578063c87b56dd14610112578063c980c6261461010d578063e985e9c5146101085763f2fde38b1461010357600080fd5b611189565b611127565b610fe8565b610ca1565b610c3b565b610b76565b610b36565b610a8f565b610a68565b6109f9565b6107da565b610689565b610630565b610601565b6105ce565b6104f5565b6104de565b61039f565b610334565b61024d565b610183565b6001600160e01b031981160361017e57565b600080fd5b3461017e57602036600319011261017e5760206004356101a28161016c565b63ffffffff60e01b166380ac58cd60e01b81149081156101e0575b81156101cf575b506040519015158152f35b6301ffc9a760e01b149050386101c4565b635b5e139f60e01b811491506101bd565b60005b8381106102045750506000910152565b81810151838201526020016101f4565b9060209161022d815180928185528580860191016101f1565b601f01601f1916010190565b90602061024a928181520190610214565b90565b3461017e57600080600319360112610331576040519080805490610270826108c0565b8085529160209160019182811690811561030457506001146102ad575b6102a98661029d81880382610715565b60405191829182610239565b0390f35b80809550527f290decd9548b62a8d60345a988386fc84ba6bc95484008f6362f93160ef3e5635b8385106102f15750505050810160200161029d826102a93861028d565b80548686018401529382019381016102d4565b90508695506102a99693506020925061029d94915060ff191682840152151560051b82010192933861028d565b80fd5b3461017e57602036600319011261017e576004356103518161190d565b50600052600460205260206001600160a01b0360406000205416604051908152f35b600435906001600160a01b038216820361017e57565b602435906001600160a01b038216820361017e57565b3461017e57604036600319011261017e576103b8610373565b602435906103c58261190d565b33151580610496575b80610458575b610440578261043e93610423926001600160a01b0380861691167f8c5be1e5ebec7d5bd14f71427d1e84f3dd0314c0f7b2291e5b200ac8c7c3b925600080a46000526004602052604060002090565b906001600160a01b03166001600160a01b0319825416179055565b005b60405163a9fbf51f60e01b8152336004820152602490fd5b506001600160a01b038116600052600560205260ff61048e336040600020906001600160a01b0316600052602052604060002090565b5416156103d4565b50336001600160a01b03821614156103ce565b606090600319011261017e576001600160a01b0390600435828116810361017e5791602435908116810361017e579060443590565b3461017e5761043e6104ef366104a9565b91611210565b3461017e57602036600319011261017e5761050e610373565b6007549060001982146105c957600182016007556040519061052f826106f4565b600082526001600160a01b03918282169283156105b0576105508584611948565b16610597578361055f92611af4565b6102a9826040519384937f0f6798a560793a54c3bcfe86a93cde1e73087d944c0ea20544137d4121396885600080a382526020820190565b6040516339e3563760e11b815260006004820152602490fd5b604051633250574960e11b815260006004820152602490fd5b6113c1565b3461017e5761043e6105df366104a9565b90604051926105ed846106f4565b600084526105fc838383611210565b611be1565b3461017e57602036600319011261017e57602061061f60043561190d565b6001600160a01b0360405191168152f35b3461017e57602036600319011261017e576001600160a01b03610651610373565b1680156106705760005260036020526020604060002054604051908152f35b6040516322718ad960e21b815260006004820152602490fd5b3461017e57600080600319360112610331576106a3611a28565b806001600160a01b0360065481198116600655167f8be0079c531659141344cd1fd0a4f28419497f9722a3daafe3b4186f6b6457e08280a380f35b634e487b7160e01b600052604160045260246000fd5b6020810190811067ffffffffffffffff82111761071057604052565b6106de565b90601f8019910116810190811067ffffffffffffffff82111761071057604052565b6040519060e0820182811067ffffffffffffffff82111761071057604052565b67ffffffffffffffff811161071057601f01601f191660200190565b92919261077f82610757565b9161078d6040519384610715565b82948184528183011161017e578281602093846000960137010152565b9080601f8301121561017e5781602061024a93359101610773565b359067ffffffffffffffff8216820361017e57565b3461017e5760031960403682011261017e576024359067ffffffffffffffff9081831161017e5760e090833603011261017e57610815610737565b826004013582811161017e5761083190600436918601016107aa565b8152602483013591821161017e576108a360c46102a99461085b6108b095600436918401016107aa565b602085015260448101356040850152610876606482016107c5565b6060850152610887608482016107c5565b608085015261089860a482016107c5565b60a0850152016107c5565b60c0820152600435611590565b6040519081529081906020820190565b90600182811c921680156108f0575b60208310146108da57565b634e487b7160e01b600052602260045260246000fd5b91607f16916108cf565b9060405191826000825461090d816108c0565b9081845260209460019160018116908160001461097d575060011461093e575b50505061093c92500383610715565b565b600090815285812095935091905b81831061096557505061093c935082010138808061092d565b8554888401850152948501948794509183019161094c565b9250505061093c94925060ff191682840152151560051b82010138808061092d565b959060c09594926109bf6109cd929a99959a60e08a5260e08a0190610214565b9088820360208a0152610214565b97604087015267ffffffffffffffff80948180941660608901521660808701521660a085015216910152565b3461017e57602036600319011261017e5760043560005260086020526040600020610a23816108fa565b906102a9610a33600183016108fa565b6003600284015493015467ffffffffffffffff906040519586958260c01c94848460801c1694808560401c169416928861099f565b3461017e57600036600319011261017e5760206001600160a01b0360065416604051908152f35b3461017e576000806003193601126103315760405190806001805490610ab4826108c0565b80865292602092600181169081156103045750600114610ade576102a98661029d81880382610715565b9350600184527fb10e2d527612073b26eecdfd717e6a320cf44b4afac2b0732d9fcbe2b7fa0cf65b838510610b235750505050810160200161029d826102a93861028d565b8054868601840152938201938101610b06565b3461017e57602036600319011261017e5760043560005260096020526102a9610b6260406000206108fa565b604051918291602083526020830190610214565b3461017e57604036600319011261017e57610b8f610373565b60243580151580820361017e576001600160a01b038316928315610c2257610bd7903360005260056020526040600020906001600160a01b0316600052602052604060002090565b9060ff801983541691161790557f17307eab39ab6107e8899845ad3d59bd9653f200f220920489ca2b5937696c3160405180610c1d339482919091602081019215159052565b0390a3005b604051630b61174360e31b815260048101859052602490fd5b3461017e57608036600319011261017e57610c54610373565b610c5c610389565b906044356064359267ffffffffffffffff841161017e573660238501121561017e57610c9561043e943690602481600401359101610773565b926105fc838383611210565b3461017e57602036600319011261017e57600435610cc9816000526008602052604060002090565b610cd290611851565b90610ce7906000526009602052604060002090565b610cf0906108fa565b8151906020830151926040810151610d0790611caa565b6060820151610d1f9067ffffffffffffffff16611caa565b6080830151610d379067ffffffffffffffff16611caa565b9160a0840151610d4e9067ffffffffffffffff1690565b67ffffffffffffffff16610d6190611caa565b60c09490940151610d7b9067ffffffffffffffff16611caa565b604051607b60f81b60208201529788979196916021890167113730b6b2911d1160c11b8152600801610dac916118f6565b61088b60f21b81526002017f226465736372697074696f6e223a2200000000000000000000000000000000008152600f01610de6916118f6565b61088b60f21b8152600201681134b6b0b3b2911d1160b91b8152600901610e0c916118f6565b61088b60f21b81526002017f2261747472696275746573223a5b0000000000000000000000000000000000008152600e017f7b2274726169745f74797065223a224865616c7468222c2276616c7565223a008152601f01610e6c916118f6565b611f4b60f21b81526002017f7b2274726169745f74797065223a2241747461636b222c2276616c7565223a008152601f01610ea6916118f6565b611f4b60f21b81526002017f7b2274726169745f74797065223a22446566656e7365222c2276616c7565223a8152602001610ee0916118f6565b611f4b60f21b81526002017f7b2274726169745f74797065223a225370656564222c2276616c7565223a00008152601e01610f1a916118f6565b611f4b60f21b81526002017f7b2274726169745f74797065223a224d61676963222c2276616c7565223a00008152601e01610f54916118f6565b607d60f81b8152600101605d60f81b8152600101607d60f81b81526001010390601f19918281018252610f879082610715565b610f9090611eb7565b6040517f646174613a6170706c69636174696f6e2f6a736f6e3b6261736536342c000000602082015291908290603d8201610fca916118f6565b039081018252610fda9082610715565b6040516102a9819282610239565b3461017e57604036600319011261017e5760043567ffffffffffffffff60243581811161017e5761101d9036906004016107aa565b9161102c6007548211156113ea565b600091818352602091600960205261105061104a60408620546108c0565b15611436565b8352600960205260408320918451918211610710576110798261107385546108c0565b85611470565b602090601f83116001146110bc5750819084956110ac9495926110b1575b50508160011b916000199060031b1c19161790565b905580f35b015190503880611097565b90601f198316956110d285600052602060002090565b9286905b88821061110f575050836001959697106110f6575b505050811b01905580f35b015160001960f88460031b161c191690553880806110eb565b806001859682949686015181550195019301906110d6565b3461017e57604036600319011261017e57602060ff61117d611147610373565b6001600160a01b03611157610389565b9116600052600584526040600020906001600160a01b0316600052602052604060002090565b54166040519015158152f35b3461017e57602036600319011261017e576111a2610373565b6111aa611a28565b6001600160a01b038091169081156111f757600654826001600160a01b0319821617600655167f8be0079c531659141344cd1fd0a4f28419497f9722a3daafe3b4186f6b6457e0600080a3005b604051631e4fbdf760e01b815260006004820152602490fd5b90916001600160a01b038084169283156105b0578260009481865260026020526040968488882054169687913315158061130f575b50906112aa7fddf252ad1be2c89b69c2b068fc378daa952ba7f163c4a11628f55a4df523b3ef92846112dc575b61128f816001600160a01b03166000526003602052604060002090565b60018154019055610423876000526002602052604060002090565b80a416928383036112bb5750505050565b6064945051926364283d7b60e01b8452600484015260248301526044820152fd5b6112e587611fb4565b611302856001600160a01b03166000526003602052604060002090565b8054600019019055611272565b9193945091508061136a575b1561132b57859291879138611245565b87868861134b579051637e27328960e01b81526004810191909152602490fd5b905163177e802f60e01b81523360048201526024810191909152604490fd5b503387148015611390575b8061131b57508582526004602052338589842054161461131b565b50868252600560205260ff6113ba338a8520906001600160a01b0316600052602052604060002090565b5416611375565b634e487b7160e01b600052601160045260246000fd5b604051906113e4826106f4565b60008252565b156113f157565b60405162461bcd60e51b815260206004820152601760248201527f546f6b656e20494420646f6573206e6f742065786973740000000000000000006044820152606490fd5b1561143d57565b60405162461bcd60e51b815260206004820152600b60248201526a105b1c9958591e481cd95d60aa1b6044820152606490fd5b90601f811161147e57505050565b6000916000526020600020906020601f850160051c830194106114bc575b601f0160051c01915b8281106114b157505050565b8181556001016114a5565b909250829061149c565b919091825167ffffffffffffffff8111610710576114ee816114e884546108c0565b84611470565b602080601f8311600114611525575081906115219394956000926110b15750508160011b916000199060031b1c19161790565b9055565b90601f1983169561153b85600052602060002090565b926000905b8882106115785750508360019596971061155f575b505050811b019055565b015160001960f88460031b161c19169055388080611555565b80600185968294968601518155019501930190611540565b9061159f6007548311156113ea565b8160005260209060086020526115bd60026040600020015415611436565b6115d1836000526008602052604060002090565b9080519283519067ffffffffffffffff82116107105785946115fd836115f787546108c0565b87611470565b602091601f84116001146117b757509180611652927f6e61423a6737ccb45d1f6aa41afb622890b052a99c825f0907b139bf58c0449f9695946000926110b15750508160011b916000199060031b1c19161790565b82555b6117b1602082019161166b8351600186016114c6565b60036040820151948560028201550190611690606082015167ffffffffffffffff1690565b825467ffffffffffffffff191667ffffffffffffffff8216178355608082015167ffffffffffffffff1683546fffffffffffffffff00000000000000001916604082901b6fffffffffffffffff0000000000000000161784559060a083015167ffffffffffffffff1684547fffffffffffffffff0000000000000000ffffffffffffffffffffffffffffffff16608082901b77ffffffffffffffff0000000000000000000000000000000016178555926117a161175860c083015167ffffffffffffffff1690565b865477ffffffffffffffffffffffffffffffffffffffffffffffff1660c082901b7fffffffffffffffff0000000000000000000000000000000000000000000000001617909655565b519551966040519788978861099f565b0390a290565b959493929190601f1983166117d186600052602060002090565b976000905b828210611835575050917f6e61423a6737ccb45d1f6aa41afb622890b052a99c825f0907b139bf58c0449f96979184600195941061181c575b505050811b018255611655565b015160001960f88460031b161c1916905538808061180f565b848401518a556001909901988a985093840193908101906117d6565b9060405160e081019067ffffffffffffffff91818110838211176107105761093c9260c0916040526118e560038497611889816108fa565b8652611897600182016108fa565b60208701526002810154604087015201549180831660608601526118cd818460401c16608087019067ffffffffffffffff169052565b8260801c1660a085019067ffffffffffffffff169052565b811c67ffffffffffffffff16910152565b90611909602092828151948592016101f1565b0190565b8060005260026020526001600160a01b0360406000205416908115611930575090565b60249060405190637e27328960e01b82526004820152fd5b908060005260026020526001600160a01b039161198a836040600020541693846119dc575b821691826119b3575b610423846000526002602052604060002090565b827fddf252ad1be2c89b69c2b068fc378daa952ba7f163c4a11628f55a4df523b3ef600080a490565b6119d0816001600160a01b03166000526003602052604060002090565b60018154019055611976565b6119f0846000526004602052604060002090565b6001600160a01b03198154169055611a1b856001600160a01b03166000526003602052604060002090565b805460001901905561196d565b6001600160a01b03600654163303611a3c57565b60405163118cdaa760e01b8152336004820152602490fd5b9081602091031261017e575161024a8161016c565b61024a93926001600160a01b036080931682526000602083015260408201528160608201520190610214565b909261024a94936080936001600160a01b03809216845216602083015260408201528160608201520190610214565b3d15611aef573d90611ad582610757565b91611ae36040519384610715565b82523d6000602084013e565b606090565b91823b611b0057505050565b6020611b239160405180938192630a85bd0160e11b968784523360048501611a69565b038160006001600160a01b0388165af160009181611bb0575b50611b7b5782611b4a611ac4565b8051919082611b7457604051633250574960e11b81526001600160a01b0383166004820152602490fd5b9050602001fd5b6001600160e01b03191603611b8d5750565b604051633250574960e11b81526001600160a01b03919091166004820152602490fd5b611bd391925060203d602011611bda575b611bcb8183610715565b810190611a54565b9038611b3c565b503d611bc1565b91929092833b611bf2575b50505050565b611c17916020916040519384928392630a85bd0160e11b978885523360048601611a95565b038160006001600160a01b0388165af160009181611c57575b50611c3e5782611b4a611ac4565b6001600160e01b03191603611b8d575038808080611bec565b611c7191925060203d602011611bda57611bcb8183610715565b9038611c30565b90611c8282610757565b611c8f6040519182610715565b8281528092611ca0601f1991610757565b0190602036910137565b806000917a184f03e93ff9f4daa797ed6e38ed64bf6a1f01000000000000000080821015611ded575b506d04ee2d6d415b85acef810000000080831015611dde575b50662386f26fc1000080831015611dcf575b506305f5e10080831015611dc0575b5061271080831015611db1575b506064821015611da1575b600a80921015611d97575b600190816021611d4260018701611c78565b95860101905b611d54575b5050505090565b600019019083907f30313233343536373839616263646566000000000000000000000000000000008282061a835304918215611d9257919082611d48565b611d4d565b9160010191611d30565b9190606460029104910191611d25565b60049193920491019138611d1a565b60089193920491019138611d0d565b60109193920491019138611cfe565b60209193920491019138611cec565b604093508104915038611cd3565b90600282018092116105c957565b90602082018092116105c957565b908160021b917f3fffffffffffffffffffffffffffffffffffffffffffffffffffffffffffffff8116036105c957565b604051906060820182811067ffffffffffffffff82111761071057604052604082527f6768696a6b6c6d6e6f707172737475767778797a303132333435363738392b2f6040837f4142434445464748494a4b4c4d4e4f505152535455565758595a61626364656660208201520152565b8051908115611faa57611edb611ed6611ecf84611dfb565b6003900490565b611e17565b91611eed611ee884611e09565b611c78565b90611ef6611e47565b92600092602081015b8484811015611f63579060049160038091019685010151600180603f81818560121c168c0101518b60089160ff9586918282878b600c1c16860101511690851b01841b92858960061c160101511601901b93168a010151160160e01b815201611eff565b509350949350506003900680600114611f9657600214611f84575b50815290565b603d60f81b6000199091015238611f7e565b50613d3d60f01b6001199091015238611f7e565b505061024a6113d7565b611fc8906000526004602052604060002090565b805473ffffffffffffffffffffffffffffffffffffffff1916905556fea2646970667358221220187f29745f672a5017b841b29d8022684bf14e89b2a25ee7372cb807e590246c64736f6c63430008190033",
  "linkReferences": {},
  "deployedLinkReferences": {}
}