{
  "_format": "hh-sol-artifact-1",
  "contractName": "Analizer",
  "sourceName": "contracts/Analizer.sol",
  "abi": [
    {
      "inputs": [
        {
          "internalType": "address",
          "name": "_oracleAddress",
          "type": "address"
        }
      ],
      "stateMutability": "nonpayable",
      "type": "constructor"
    },
    {
      "inputs": [
        {
          "internalType": "string",
          "name": "name",
          "type": "string"
        },
        {
          "internalType": "string",
          "name": "message",
          "type": "string"
        }
      ],
      "name": "callFunction",
      "outputs": [
        {
          "internalType": "uint256",
          "name": "i",
          "type": "uint256"
        }
      ],
      "stateMutability": "nonpayable",
      "type": "function"
    },
    {
      "inputs": [
        {
          "internalType": "string",
          "name": "model",
          "type": "string"
        },
        {
          "internalType": "string",
          "name": "message",
          "type": "string"
        }
      ],
      "name": "callOpenAiLLM",
      "outputs": [
        {
          "internalType": "uint256",
          "name": "i",
          "type": "uint256"
        }
      ],
      "stateMutability": "nonpayable",
      "type": "function"
    },
    {
      "inputs": [
        {
          "internalType": "uint256",
          "name": "",
          "type": "uint256"
        }
      ],
      "name": "getMessageHistory",
      "outputs": [
        {
          "components": [
            {
              "internalType": "string",
              "name": "role",
              "type": "string"
            },
            {
              "components": [
                {
                  "internalType": "string",
                  "name": "contentType",
                  "type": "string"
                },
                {
                  "internalType": "string",
                  "name": "value",
                  "type": "string"
                }
              ],
              "internalType": "struct IOracle.Content[]",
              "name": "content",
              "type": "tuple[]"
            }
          ],
          "internalType": "struct IOracle.Message[]",
          "name": "",
          "type": "tuple[]"
        }
      ],
      "stateMutability": "view",
      "type": "function"
    },
    {
      "inputs": [],
      "name": "lastError",
      "outputs": [
        {
          "internalType": "string",
          "name": "",
          "type": "string"
        }
      ],
      "stateMutability": "view",
      "type": "function"
    },
    {
      "inputs": [],
      "name": "lastResponse",
      "outputs": [
        {
          "internalType": "string",
          "name": "",
          "type": "string"
        }
      ],
      "stateMutability": "view",
      "type": "function"
    },
    {
      "inputs": [
        {
          "internalType": "uint256",
          "name": "",
          "type": "uint256"
        },
        {
          "internalType": "string",
          "name": "response",
          "type": "string"
        },
        {
          "internalType": "string",
          "name": "errorMessage",
          "type": "string"
        }
      ],
      "name": "onOracleFunctionResponse",
      "outputs": [],
      "stateMutability": "nonpayable",
      "type": "function"
    },
    {
      "inputs": [
        {
          "internalType": "uint256",
          "name": "",
          "type": "uint256"
        },
        {
          "components": [
            {
              "internalType": "string",
              "name": "id",
              "type": "string"
            },
            {
              "internalType": "string",
              "name": "content",
              "type": "string"
            },
            {
              "internalType": "uint64",
              "name": "created",
              "type": "uint64"
            },
            {
              "internalType": "string",
              "name": "model",
              "type": "string"
            },
            {
              "internalType": "string",
              "name": "systemFingerprint",
              "type": "string"
            },
            {
              "internalType": "string",
              "name": "object",
              "type": "string"
            },
            {
              "internalType": "uint32",
              "name": "completionTokens",
              "type": "uint32"
            },
            {
              "internalType": "uint32",
              "name": "promptTokens",
              "type": "uint32"
            },
            {
              "internalType": "uint32",
              "name": "totalTokens",
              "type": "uint32"
            }
          ],
          "internalType": "struct IOracle.GroqResponse",
          "name": "response",
          "type": "tuple"
        },
        {
          "internalType": "string",
          "name": "errorMessage",
          "type": "string"
        }
      ],
      "name": "onOracleGroqLlmResponse",
      "outputs": [],
      "stateMutability": "nonpayable",
      "type": "function"
    },
    {
      "inputs": [
        {
          "internalType": "uint256",
          "name": "",
          "type": "uint256"
        },
        {
          "internalType": "string[]",
          "name": "documents",
          "type": "string[]"
        },
        {
          "internalType": "string",
          "name": "errorMessage",
          "type": "string"
        }
      ],
      "name": "onOracleKnowledgeBaseQueryResponse",
      "outputs": [],
      "stateMutability": "nonpayable",
      "type": "function"
    },
    {
      "inputs": [
        {
          "internalType": "uint256",
          "name": "",
          "type": "uint256"
        },
        {
          "components": [
            {
              "internalType": "string",
              "name": "id",
              "type": "string"
            },
            {
              "internalType": "string",
              "name": "content",
              "type": "string"
            },
            {
              "internalType": "string",
              "name": "functionName",
              "type": "string"
            },
            {
              "internalType": "string",
              "name": "functionArguments",
              "type": "string"
            },
            {
              "internalType": "uint64",
              "name": "created",
              "type": "uint64"
            },
            {
              "internalType": "string",
              "name": "model",
              "type": "string"
            },
            {
              "internalType": "string",
              "name": "systemFingerprint",
              "type": "string"
            },
            {
              "internalType": "string",
              "name": "object",
              "type": "string"
            },
            {
              "internalType": "uint32",
              "name": "completionTokens",
              "type": "uint32"
            },
            {
              "internalType": "uint32",
              "name": "promptTokens",
              "type": "uint32"
            },
            {
              "internalType": "uint32",
              "name": "totalTokens",
              "type": "uint32"
            }
          ],
          "internalType": "struct IOracle.LlmResponse",
          "name": "response",
          "type": "tuple"
        },
        {
          "internalType": "string",
          "name": "errorMessage",
          "type": "string"
        }
      ],
      "name": "onOracleLlmResponse",
      "outputs": [],
      "stateMutability": "nonpayable",
      "type": "function"
    },
    {
      "inputs": [
        {
          "internalType": "uint256",
          "name": "",
          "type": "uint256"
        },
        {
          "components": [
            {
              "internalType": "string",
              "name": "id",
              "type": "string"
            },
            {
              "internalType": "string",
              "name": "content",
              "type": "string"
            },
            {
              "internalType": "string",
              "name": "functionName",
              "type": "string"
            },
            {
              "internalType": "string",
              "name": "functionArguments",
              "type": "string"
            },
            {
              "internalType": "uint64",
              "name": "created",
              "type": "uint64"
            },
            {
              "internalType": "string",
              "name": "model",
              "type": "string"
            },
            {
              "internalType": "string",
              "name": "systemFingerprint",
              "type": "string"
            },
            {
              "internalType": "string",
              "name": "object",
              "type": "string"
            },
            {
              "internalType": "uint32",
              "name": "completionTokens",
              "type": "uint32"
            },
            {
              "internalType": "uint32",
              "name": "promptTokens",
              "type": "uint32"
            },
            {
              "internalType": "uint32",
              "name": "totalTokens",
              "type": "uint32"
            }
          ],
          "internalType": "struct IOracle.OpenAiResponse",
          "name": "response",
          "type": "tuple"
        },
        {
          "internalType": "string",
          "name": "errorMessage",
          "type": "string"
        }
      ],
      "name": "onOracleOpenAiLlmResponse",
      "outputs": [],
      "stateMutability": "nonpayable",
      "type": "function"
    },
    {
      "inputs": [],
      "name": "oracleAddress",
      "outputs": [
        {
          "internalType": "address",
          "name": "",
          "type": "address"
        }
      ],
      "stateMutability": "view",
      "type": "function"
    },
    {
      "inputs": [
        {
          "internalType": "address",
          "name": "newOracleAddress",
          "type": "address"
        }
      ],
      "name": "setOracleAddress",
      "outputs": [],
      "stateMutability": "nonpayable",
      "type": "function"
    }
  ],
  "bytecode": "0x608034607057601f61241338819003918201601f19168301916001600160401b03831184841017607557808492602094604052833981010312607057516001600160a01b03811690819003607057600080546001600160a01b031916919091179055604051612387908161008c8239f35b600080fd5b634e487b7160e01b600052604160045260246000fdfe6080604052600436101561001257600080fd5b60003560e01c80630200055414611c3f5780630d7aebef146110165780632843d13514610d3b57806329f0de3f14610c9f5780634c69c00f14610c645780634cecd88e14610ad057806354a470fc1461083d57806362747e42146107685780637397454d1461059f578063a89ae4ba14610578578063cc060137146102855763e5fcc7bf146100a057600080fd5b34610280576100ae36611f39565b91506100c66001600160a01b0360005416331461228d565b60208091015180519167ffffffffffffffff928381116101f9576003926100f6826100f18654611dec565b612169565b8290601f831160011461020f5761012692916000918361017c575b50508160011b916000199060031b1c19161790565b82555b83519283116101f95761014683610141600454611dec565b6121ad565b8091601f841160011461018757505081906101779360009261017c5750508160011b916000199060031b1c19161790565b600455005b015190503880610111565b9091601f198416946004600052600080516020612332833981519152936000905b8782106101e157505084600196106101c7575b50505050811b01600455005b01519060f884600019921b161c19169055388080806101bb565b806001859782949686015181550196019301906101a8565b634e487b7160e01b600052604160045260246000fd5b90601f19831691856000526000805160206123128339815191529260005b8682821061026a575050908460019594939210610252575b505050811b018255610129565b015160001983871b60f8161c19169055388080610245565b600185968293968601518155019501930161022d565b600080fd5b34610280576003196060368201126102805767ffffffffffffffff602435818111610280576101208093823603011261028057604051928301838110838211176101f9576040528060040135828111610280576102e89060043691840101611d36565b83526024810135828111610280576103069060043691840101611d36565b9260209182820194855261031c60448201611f13565b604083015260648101358481116102805761033d9060043691840101611d36565b606083015260848101358481116102805761035e9060043691840101611d36565b608083015260a481013590848211610280576101046103b79161038a6101009460043691840101611d36565b60a086015261039b60c48201611f28565b60c08601526103ac60e48201611f28565b60e086015201611f28565b910152604435828111610280576103d2903690600401611d36565b926103e96001600160a01b0360005416331461228d565b519081518381116101f957600392610405826100f18654611dec565b8290601f8311600114610507576104349291600091836104fc5750508160011b916000199060031b1c19161790565b82555b83519283116101f95761044f83610141600454611dec565b8091601f841160011461048b5750508190610177936000926104805750508160011b916000199060031b1c19161790565b015190508380610111565b9091601f198416946004600052600080516020612332833981519152936000905b8782106104e457505084600196106104ca5750505050811b01600455005b01519060f884600019921b161c19169055828080806101bb565b806001859782949686015181550196019301906104ac565b015190508780610111565b90601f19831691856000526000805160206123128339815191529260005b8682821061056257505090846001959493921061054a575b505050811b018255610437565b015160001983871b60f8161c1916905586808061053d565b6001859682939686015181550195019301610525565b346102805760003660031901126102805760206001600160a01b0360005416604051908152f35b346102805760603660031901126102805767ffffffffffffffff602435818111610280576105d1903690600401611d36565b90604435818111610280576105ea903690600401611d36565b906106016001600160a01b0360005416331461228d565b82518181116101f95760039061061b816100f18454611dec565b602094601f82116001146106f95761064e9293949582916000926106ee5750508160011b916000199060031b1c19161790565b81555b82519182116101f95761066982610141600454611dec565b602090601f831160011461069a57508190610177936000926104805750508160011b916000199060031b1c19161790565b601f1983169160046000526000805160206123328339815191529260005b8181106106d657509484600196106104ca5750505050811b01600455005b9193602060018192878a0151815501950192016106b8565b015190508680610111565b601f19821695836000526000805160206123128339815191529160005b88811061075057508360019596979810610738575b505050811b018155610651565b015160001983861b60f8161c1916905585808061072b565b91926020600181928685015181550194019201610716565b346102805760003660031901126102805760405160035460008261078b83611dec565b918282526020936001908560018216918260001461081d5750506001146107d2575b506107ba92500383611d14565b6107ce604051928284938452830190611eee565b0390f35b8491506003600052600080516020612312833981519152906000915b8583106108055750506107ba9350820101856107ad565b805483890185015287945086939092019181016107ee565b60ff1916858201526107ba95151560051b85010192508791506107ad9050565b3461028057602080600319360112610280576040519061085c82611cdc565b6001918281528160005b818110610aba57505060405161087b81611cdc565b604051845481600061088c83611dec565b92838352878982169182600014610a9d575050600114610a40575b6108b692509694960382611d14565b8152600280546108c581611dd4565b916108d36040519384611d14565b81835285830160026000526000805160206122f28339815191526000915b848310610a035750505050508382015261090a846122e4565b52610914836122e4565b50604051918083018184528451809152604084019160058160408460051b8801019701936000915b8483106109495787890388f35b9091929394958098603f1989820301845285885191816109728451604084526040840190611eee565b9301519082818503910152805180845282840190838082891b87010193019460005b878382106109b7575050505050819250980193019301919493929097959761093c565b9193956109f181929496601f19878203018952895190836109e18351604084526040840190611eee565b9201519084818403910152611eee565b970195019101918a9495939192610994565b968389829b99604051610a1581611cdc565b610a1e86611e26565b8152610a2b858701611e26565b838201528152019201920191909896986108f1565b50508560005281857fb10e2d527612073b26eecdfd717e6a320cf44b4afac2b0732d9fcbe2b7fa0cf6886000915b858310610a845750506108b693508201016108a7565b8091929450548385880101520191018690888593610a6e565b60ff1916848201526108b694151560051b84010191506108a79050565b610ac261222b565b828285010152018290610866565b3461028057610ade36611f39565b9150610af66001600160a01b0360005416331461228d565b60208091015180519167ffffffffffffffff928381116101f957600392610b21826100f18654611dec565b8290601f8311600114610bf357610b509291600091836104fc5750508160011b916000199060031b1c19161790565b82555b83519283116101f957610b6b83610141600454611dec565b8091601f8411600114610b9c5750508190610177936000926104805750508160011b916000199060031b1c19161790565b9091601f198416946004600052600080516020612332833981519152936000905b878210610bdb57505084600196106104ca5750505050811b01600455005b80600185978294968601518155019601930190610bbd565b90601f19831691856000526000805160206123128339815191529260005b86828210610c4e575050908460019594939210610c36575b505050811b018255610b53565b015160001983871b60f8161c19169055868080610c29565b6001859682939686015181550195019301610c11565b34610280576020366003190112610280576004356001600160a01b038116809103610280576001600160a01b03196000541617600055600080f35b3461028057600036600319011261028057604051600454600082610cc283611dec565b918282526020936001908560018216918260001461081d575050600114610cf057506107ba92500383611d14565b8491506004600052600080516020612332833981519152906000915b858310610d235750506107ba9350820101856107ad565b80548389018501528794508693909201918101610d0c565b3461028057606036600319011261028057602480359067ffffffffffffffff8083116102805736602384011215610280578260040135610d7a81611dd4565b90610d886040519283611d14565b8082526020948583018560059360051b8301019136831161028057868101915b838310610ff0575050505060443583811161028057610dcb903690600401611d36565b610de16001600160a01b0360005416331461228d565b604051610ded81611cf8565b60008152936000945b8451861015610e5c57610e3d610e5460216001938b8a891b8a0101518c6040519583610e2b8895518092858089019101611ecb565b84019183519381859285019101611ecb565b01600560f91b8d8201520384810184520182611d14565b950194610df6565b87878251848111610fdb57600393610e78826100f18754611dec565b8390601f8311600114610f6a57610ea7929160009183610f5f5750508160011b916000199060031b1c19161790565b83555b8451938411610f4b5750610ec383610141600454611dec565b8091601f8411600114610ef45750508190610177936000926104805750508160011b916000199060031b1c19161790565b9091601f198416946004600052600080516020612332833981519152936000905b878210610f3357505084600196106104ca5750505050811b01600455005b80600185978294968601518155019601930190610f15565b634e487b7160e01b60009081526041600452fd5b015190508880610111565b90601f19831691866000526000805160206123128339815191529260005b87828210610fc5575050908460019594939210610fad575b505050811b018355610eaa565b015160001983881b60f8161c19169055878080610fa0565b6001859682939686015181550195019301610f88565b50634e487b7160e01b60009081526041600452fd5b823587811161028057899161100b83928b3691870101611d36565b815201920191610da8565b346102805761102436611d8d565b9060055460018101808211611b54576005556040519061104382611cdc565b6001825260005b60208082101561106c579060209161106061222b565b9082860101520161104a565b50509060405161107b81611cdc565b60206040519161108a83611cdc565b60048352633ab9b2b960e11b828401528281520191825280519067ffffffffffffffff82116101f9576110be600154611dec565b601f8111611bf0575b50602090601f8311600114611b6a576110f89291600091836104fc5750508160011b916000199060031b1c19161790565b6001555b518051906801000000000000000082116101f95760025482600255808310611ad6575b506020019060026000526000805160206122f2833981519152916000905b828210611906575050505061126360e160405180957f596f75206172652061206372656174697665206469726563746f7220696e206160208301527f2067616d6520636f6d70616e7920616e64206b6e6f776e20617320612074616c60408301527f656e74656420736f6c6964697479206465762e20416e616c797a65207468697360608301527f207472616e73616374696f6e20616e6420637265617465206d6f6e737465722060808301527f66726f6d20636f64652e205468656e20657374696d61746520636f6d706c657860a08301527f69747920616e642061747461636b20706172616d206f66206d6f6e737465722e60c0830152600160fd1b60e08301526112538151809260208686019101611ecb565b81010360c1810186520184611d14565b60405161126f81611cdc565b60405161127b81611cdc565b60048152631d195e1d60e21b6020820152815260208101938452600254156118f05760026000525192835167ffffffffffffffff81116101f9576112cd6000805160206122f283398151915254611dec565b601f8111611894575b50602094601f82116001146117f65761130a9293949582916000926106ee5750508160011b916000199060031b1c19161790565b6000805160206122f2833981519152555b5191825167ffffffffffffffff81116101f9577f405787fa12a823e0f2b7631cc41b3ba8828b3321ca811111fa75cd3aa3bb5acf9061135a8254611dec565b601f811161179d575b50602094601f821160011461171b576113979293949582916000926106ee5750508160011b916000199060031b1c19161790565b90555b6113ad6113a8600354611dec565b6120e3565b60006003556113c56113c0600454611dec565b612126565b60006004556001600160a01b0360005416604051916101a0830183811067ffffffffffffffff8211176101f95760405282526015602083015260405161140a81611cf8565b6000815260408301526103e860608301526015608083015260405191610100918284019284841067ffffffffffffffff8511176101f9576116ca9460209460405260c781527f7b2274797065223a226a736f6e5f736368656d61222c226a736f6e5f73636865858201527f6d61223a7b226e616d65223a22616e616c79736973222c22737472696374223a60408201527f747275652c22736368656d61223a7b2274797065223a226f626a656374222c2260608201527f70726f70657274696573223a7b22616e616c79736973223a7b2274797065223a60808201527f22737472696e67227d2c22636f6d706c6578697479223a7b2274797065223a2260a08201527f6e756d626572227d2c2261747461636b223a7b2274797065223a226e756d626560c08201526672227d7d7d7d7d60c81b60e082015260a0840152600060c084015260405161155a81611cf8565b6000815260e0840152600a81840152603261012084015260405161157d81611cf8565b6000815261014084015260405161159381611cf8565b600081526101608401526040516115a981611cf8565b600081526101808401526000604051809681958294633c38a5f560e01b84528a6004850152604060248501526101806116b76116a16115f685516101a060448a01526101e4890190611eee565b938c860151890b6064890152611675611655611625604089015197604319988c60848b82850301910152611eee565b63ffffffff60608a01511660a48c015260808901518c0b60c48c015260a0890151888c83030160e48d0152611eee565b60c08801516101048b015260e0880151878b8303016101248c0152611eee565b9086015161014489015261012086015161016489015261014086015185898303016101848a0152611eee565b61016085015184888303016101a4890152611eee565b92015190848303016101c4850152611eee565b03925af1801561170f576116e4575b602082604051908152f35b602090813d8311611708575b6116fa8183611d14565b8101031261028057816116d9565b503d6116f0565b6040513d6000823e3d90fd5b601f19821695836000527f2f2149d90beac0570c7f26368e4bc897ca24bba51b1a0f4960d358f764f11f319160005b8881106117855750836001959697981061176c575b505050811b01905561139a565b015160001960f88460031b161c1916905585808061175f565b9192602060018192868501518155019401920161174a565b6117e690836000527f2f2149d90beac0570c7f26368e4bc897ca24bba51b1a0f4960d358f764f11f31601f840160051c810191602085106117ec575b601f0160051c01906120cc565b85611363565b90915081906117d9565b601f198216956000805160206122f28339815191526000527f1ab0c6948a275349ae45a06aad66a8bd65ac18074615d53676c09b67809099e09160005b88811061187c57508360019596979810611863575b505050811b016000805160206122f28339815191525561131b565b015160001960f88460031b161c19169055858080611848565b91926020600181928685015181550194019201611833565b6118ea906000805160206122f28339815191526000527f1ab0c6948a275349ae45a06aad66a8bd65ac18074615d53676c09b67809099e0601f840160051c810191602085106117ec57601f0160051c01906120cc565b856112d6565b634e487b7160e01b600052603260045260246000fd5b8051805180519067ffffffffffffffff82116101f9576119308261192a8954611dec565b896121f1565b602090601f8311600114611a695791806119649260209594600092611a5e5750508160011b916000199060031b1c19161790565b86555b015180519067ffffffffffffffff82116101f9576119958261198c6001890154611dec565b600189016121f1565b602090601f83116001146119e957926119cd836002946020946001976000926119de5750508160011b916000199060031b1c19161790565b848801555b0194019101909261113d565b015190508d80610111565b906001870160005260206000209160005b601f1985168110611a46575083602093600196938793600297601f19811610611a2d575b505050811b01848801556119d2565b015160001960f88460031b161c191690558c8080611a1e565b919260206001819286850151815501940192016119fa565b015190508c80610111565b908760005260206000209160005b601f1985168110611abe575091839160019360209695601f19811610611aa5575b505050811b018655611967565b015160001960f88460031b161c191690558b8080611a98565b91926020600181928685015181550194019201611a77565b7f7fffffffffffffffffffffffffffffffffffffffffffffffffffffffffffffff8082168203611b545783168303611b545760026000526000805160206122f28339815191529060011b8101908360011b015b818110611b36575061111f565b80611b42600292612244565b611b4e60018201612244565b01611b29565b634e487b7160e01b600052601160045260246000fd5b90601f1983169160016000527fb10e2d527612073b26eecdfd717e6a320cf44b4afac2b0732d9fcbe2b7fa0cf69260005b818110611bd85750908460019594939210611bbf575b505050811b016001556110fc565b015160001960f88460031b161c19169055868080611bb1565b92936020600181928786015181550195019301611b9b565b611c399060016000527fb10e2d527612073b26eecdfd717e6a320cf44b4afac2b0732d9fcbe2b7fa0cf6601f850160051c810191602086106117ec57601f0160051c01906120cc565b866110c7565b3461028057611c4d36611d8d565b90600554916001830190818411611b54576116ca92602092600555611c766113a8600354611dec565b6000600355611c896113c0600454611dec565b6000600455611cca60006001600160a01b038154169260405196879586948593634b04236b60e01b85528b6004860152606060248601526064850190611eee565b83810360031901604485015290611eee565b6040810190811067ffffffffffffffff8211176101f957604052565b6020810190811067ffffffffffffffff8211176101f957604052565b90601f8019910116810190811067ffffffffffffffff8211176101f957604052565b81601f820112156102805780359067ffffffffffffffff82116101f95760405192611d6b601f8401601f191660200185611d14565b8284526020838301011161028057816000926020809301838601378301015290565b9060406003198301126102805767ffffffffffffffff6004358181116102805783611dba91600401611d36565b9260243591821161028057611dd191600401611d36565b90565b67ffffffffffffffff81116101f95760051b60200190565b90600182811c92168015611e1c575b6020831014611e0657565b634e487b7160e01b600052602260045260246000fd5b91607f1691611dfb565b90604051918260008254611e3981611dec565b90818452602094600191600181169081600014611ea95750600114611e6a575b505050611e6892500383611d14565b565b600090815285812095935091905b818310611e91575050611e689350820101388080611e59565b85548884018501529485019487945091830191611e78565b92505050611e6894925060ff191682840152151560051b820101388080611e59565b60005b838110611ede5750506000910152565b8181015183820152602001611ece565b90602091611f0781518092818552858086019101611ecb565b601f01601f1916010190565b359067ffffffffffffffff8216820361028057565b359063ffffffff8216820361028057565b906003199060608284011261028057600480359367ffffffffffffffff93602435858111610280576101608092828503011261028057604051918201828110878211176120b75760405280840135868111610280578385611f9c92840101611d36565b82526024810135868111610280578385611fb892840101611d36565b60208301526044810135868111610280578385611fd792840101611d36565b60408301526064810135868111610280578385611ff692840101611d36565b606083015261200760848201611f13565b608083015260a481013586811161028057838561202692840101611d36565b60a083015260c481013586811161028057838561204592840101611d36565b60c083015260e4810135868111610280578161206b85876101449461209c960101611d36565b60e085015261207d6101048201611f28565b6101008501526120906101248201611f28565b61012085015201611f28565b6101408201529360443590811161028057611dd19201611d36565b604185634e487b7160e01b6000525260246000fd5b8181106120d7575050565b600081556001016120cc565b601f81116120ee5750565b60006003600052601f600080516020612312833981519152920160051c8201915b82811061211b57505050565b81815560010161210f565b601f81116121315750565b60006004600052601f600080516020612332833981519152920160051c8201915b82811061215e57505050565b818155600101612152565b90601f8211612176575050565b611e68916003600052600080516020612312833981519152906020601f840160051c830193106117ec57601f0160051c01906120cc565b90601f82116121ba575050565b611e68916004600052600080516020612332833981519152906020601f840160051c830193106117ec57601f0160051c01906120cc565b9190601f811161220057505050565b611e68926000526020600020906020601f840160051c830193106117ec57601f0160051c01906120cc565b6040519061223882611cdc565b60606020838281520152565b61224e8154611dec565b9081612258575050565b81601f6000931160011461226a575055565b908083918252612289601f60208420940160051c8401600185016120cc565b5555565b1561229457565b60405162461bcd60e51b815260206004820152602260248201527f4f6e6c79206f7261636c652063616e2063616c6c20746869732066756e63746960448201526137b760f11b6064820152608490fd5b8051156118f0576020019056fe405787fa12a823e0f2b7631cc41b3ba8828b3321ca811111fa75cd3aa3bb5acec2575a0e9e593c00f959f8c92f12db2869c3395a3b0502d05e2516446f71f85b8a35acfbc15ff81a39ae7d344fd709f28e8600b4aa8c65c6b64bfe7fe36bd19ba2646970667358221220ec510c3e22943894b9279e85afac5dc360448008d9adc945aa057b434f45998a64736f6c63430008190033",
  "linkReferences": {},
  "deployedLinkReferences": {}
}