{
  "_format": "hh-sol-artifact-1",
  "contractName": "BaseNft",
  "sourceName": "contracts/BaseNft.sol",
  "abi": [
    {
      "inputs": [],
      "stateMutability": "nonpayable",
      "type": "constructor"
    },
    {
      "inputs": [
        {
          "internalType": "address",
          "name": "sender",
          "type": "address"
        },
        {
          "internalType": "uint256",
          "name": "tokenId",
          "type": "uint256"
        },
        {
          "internalType": "address",
          "name": "owner",
          "type": "address"
        }
      ],
      "name": "ERC721IncorrectOwner",
      "type": "error"
    },
    {
      "inputs": [
        {
          "internalType": "address",
          "name": "operator",
          "type": "address"
        },
        {
          "internalType": "uint256",
          "name": "tokenId",
          "type": "uint256"
        }
      ],
      "name": "ERC721InsufficientApproval",
      "type": "error"
    },
    {
      "inputs": [
        {
          "internalType": "address",
          "name": "approver",
          "type": "address"
        }
      ],
      "name": "ERC721InvalidApprover",
      "type": "error"
    },
    {
      "inputs": [
        {
          "internalType": "address",
          "name": "operator",
          "type": "address"
        }
      ],
      "name": "ERC721InvalidOperator",
      "type": "error"
    },
    {
      "inputs": [
        {
          "internalType": "address",
          "name": "owner",
          "type": "address"
        }
      ],
      "name": "ERC721InvalidOwner",
      "type": "error"
    },
    {
      "inputs": [
        {
          "internalType": "address",
          "name": "receiver",
          "type": "address"
        }
      ],
      "name": "ERC721InvalidReceiver",
      "type": "error"
    },
    {
      "inputs": [
        {
          "internalType": "address",
          "name": "sender",
          "type": "address"
        }
      ],
      "name": "ERC721InvalidSender",
      "type": "error"
    },
    {
      "inputs": [
        {
          "internalType": "uint256",
          "name": "tokenId",
          "type": "uint256"
        }
      ],
      "name": "ERC721NonexistentToken",
      "type": "error"
    },
    {
      "inputs": [
        {
          "internalType": "address",
          "name": "owner",
          "type": "address"
        }
      ],
      "name": "OwnableInvalidOwner",
      "type": "error"
    },
    {
      "inputs": [
        {
          "internalType": "address",
          "name": "account",
          "type": "address"
        }
      ],
      "name": "OwnableUnauthorizedAccount",
      "type": "error"
    },
    {
      "anonymous": false,
      "inputs": [
        {
          "indexed": true,
          "internalType": "address",
          "name": "owner",
          "type": "address"
        },
        {
          "indexed": true,
          "internalType": "address",
          "name": "approved",
          "type": "address"
        },
        {
          "indexed": true,
          "internalType": "uint256",
          "name": "tokenId",
          "type": "uint256"
        }
      ],
      "name": "Approval",
      "type": "event"
    },
    {
      "anonymous": false,
      "inputs": [
        {
          "indexed": true,
          "internalType": "address",
          "name": "owner",
          "type": "address"
        },
        {
          "indexed": true,
          "internalType": "address",
          "name": "operator",
          "type": "address"
        },
        {
          "indexed": false,
          "internalType": "bool",
          "name": "approved",
          "type": "bool"
        }
      ],
      "name": "ApprovalForAll",
      "type": "event"
    },
    {
      "anonymous": false,
      "inputs": [
        {
          "indexed": true,
          "internalType": "address",
          "name": "previousOwner",
          "type": "address"
        },
        {
          "indexed": true,
          "internalType": "address",
          "name": "newOwner",
          "type": "address"
        }
      ],
      "name": "OwnershipTransferred",
      "type": "event"
    },
    {
      "anonymous": false,
      "inputs": [
        {
          "indexed": true,
          "internalType": "address",
          "name": "from",
          "type": "address"
        },
        {
          "indexed": true,
          "internalType": "address",
          "name": "to",
          "type": "address"
        },
        {
          "indexed": true,
          "internalType": "uint256",
          "name": "tokenId",
          "type": "uint256"
        }
      ],
      "name": "Transfer",
      "type": "event"
    },
    {
      "inputs": [
        {
          "internalType": "address",
          "name": "to",
          "type": "address"
        },
        {
          "internalType": "uint256",
          "name": "tokenId",
          "type": "uint256"
        }
      ],
      "name": "approve",
      "outputs": [],
      "stateMutability": "nonpayable",
      "type": "function"
    },
    {
      "inputs": [
        {
          "internalType": "address",
          "name": "owner",
          "type": "address"
        }
      ],
      "name": "balanceOf",
      "outputs": [
        {
          "internalType": "uint256",
          "name": "",
          "type": "uint256"
        }
      ],
      "stateMutability": "view",
      "type": "function"
    },
    {
      "inputs": [
        {
          "internalType": "uint256",
          "name": "tokenId",
          "type": "uint256"
        }
      ],
      "name": "getApproved",
      "outputs": [
        {
          "internalType": "address",
          "name": "",
          "type": "address"
        }
      ],
      "stateMutability": "view",
      "type": "function"
    },
    {
      "inputs": [
        {
          "internalType": "address",
          "name": "owner",
          "type": "address"
        },
        {
          "internalType": "address",
          "name": "operator",
          "type": "address"
        }
      ],
      "name": "isApprovedForAll",
      "outputs": [
        {
          "internalType": "bool",
          "name": "",
          "type": "bool"
        }
      ],
      "stateMutability": "view",
      "type": "function"
    },
    {
      "inputs": [],
      "name": "name",
      "outputs": [
        {
          "internalType": "string",
          "name": "",
          "type": "string"
        }
      ],
      "stateMutability": "view",
      "type": "function"
    },
    {
      "inputs": [],
      "name": "owner",
      "outputs": [
        {
          "internalType": "address",
          "name": "",
          "type": "address"
        }
      ],
      "stateMutability": "view",
      "type": "function"
    },
    {
      "inputs": [
        {
          "internalType": "uint256",
          "name": "tokenId",
          "type": "uint256"
        }
      ],
      "name": "ownerOf",
      "outputs": [
        {
          "internalType": "address",
          "name": "",
          "type": "address"
        }
      ],
      "stateMutability": "view",
      "type": "function"
    },
    {
      "inputs": [],
      "name": "renounceOwnership",
      "outputs": [],
      "stateMutability": "nonpayable",
      "type": "function"
    },
    {
      "inputs": [
        {
          "internalType": "address",
          "name": "to",
          "type": "address"
        }
      ],
      "name": "safeMint",
      "outputs": [],
      "stateMutability": "nonpayable",
      "type": "function"
    },
    {
      "inputs": [
        {
          "internalType": "address",
          "name": "from",
          "type": "address"
        },
        {
          "internalType": "address",
          "name": "to",
          "type": "address"
        },
        {
          "internalType": "uint256",
          "name": "tokenId",
          "type": "uint256"
        }
      ],
      "name": "safeTransferFrom",
      "outputs": [],
      "stateMutability": "nonpayable",
      "type": "function"
    },
    {
      "inputs": [
        {
          "internalType": "address",
          "name": "from",
          "type": "address"
        },
        {
          "internalType": "address",
          "name": "to",
          "type": "address"
        },
        {
          "internalType": "uint256",
          "name": "tokenId",
          "type": "uint256"
        },
        {
          "internalType": "bytes",
          "name": "data",
          "type": "bytes"
        }
      ],
      "name": "safeTransferFrom",
      "outputs": [],
      "stateMutability": "nonpayable",
      "type": "function"
    },
    {
      "inputs": [
        {
          "internalType": "address",
          "name": "operator",
          "type": "address"
        },
        {
          "internalType": "bool",
          "name": "approved",
          "type": "bool"
        }
      ],
      "name": "setApprovalForAll",
      "outputs": [],
      "stateMutability": "nonpayable",
      "type": "function"
    },
    {
      "inputs": [
        {
          "internalType": "bytes4",
          "name": "interfaceId",
          "type": "bytes4"
        }
      ],
      "name": "supportsInterface",
      "outputs": [
        {
          "internalType": "bool",
          "name": "",
          "type": "bool"
        }
      ],
      "stateMutability": "view",
      "type": "function"
    },
    {
      "inputs": [],
      "name": "symbol",
      "outputs": [
        {
          "internalType": "string",
          "name": "",
          "type": "string"
        }
      ],
      "stateMutability": "view",
      "type": "function"
    },
    {
      "inputs": [
        {
          "internalType": "uint256",
          "name": "tokenId",
          "type": "uint256"
        }
      ],
      "name": "tokenURI",
      "outputs": [
        {
          "internalType": "string",
          "name": "",
          "type": "string"
        }
      ],
      "stateMutability": "view",
      "type": "function"
    },
    {
      "inputs": [
        {
          "internalType": "address",
          "name": "from",
          "type": "address"
        },
        {
          "internalType": "address",
          "name": "to",
          "type": "address"
        },
        {
          "internalType": "uint256",
          "name": "tokenId",
          "type": "uint256"
        }
      ],
      "name": "transferFrom",
      "outputs": [],
      "stateMutability": "nonpayable",
      "type": "function"
    },
    {
      "inputs": [
        {
          "internalType": "address",
          "name": "newOwner",
          "type": "address"
        }
      ],
      "name": "transferOwnership",
      "outputs": [],
      "stateMutability": "nonpayable",
      "type": "function"
    }
  ],
  "bytecode": "0x60803461034a576001600160401b0390604081810183811183821017610334578152600782526020916610985cd953999d60ca1b8382015281519382850185811082821117610334578352600385526210939560ea1b848601528151818111610334576000948554916001948584811c9416801561032a575b83851014610316578190601f948581116102c8575b50839085831160011461026957899261025e575b5050600019600383901b1c191690851b1786555b865192831161024a5783548481811c91168015610240575b8282101461022c578281116101e9575b508091831160011461018757508495829394959261017c575b5050600019600383901b1c191690821b1790555b33156101645760068054336001600160a01b03198216811790925591519290916001600160a01b0316907f8be0079c531659141344cd1fd0a4f28419497f9722a3daafe3b4186f6b6457e09080a3610f0790816103508239f35b51631e4fbdf760e01b81526004810191909152602490fd5b0151905038806100f6565b90601f198316968487528287209287905b8982106101d25750508385969798106101b9575b505050811b01905561010a565b015160001960f88460031b161c191690553880806101ac565b808785968294968601518155019501930190610198565b8487528187208380860160051c820192848710610223575b0160051c019085905b8281106102185750506100dd565b88815501859061020a565b92508192610201565b634e487b7160e01b87526022600452602487fd5b90607f16906100cd565b634e487b7160e01b86526041600452602486fd5b0151905038806100a1565b898052848a208894509190601f1984168b5b878282106102b25750508411610299575b505050811b0186556100b5565b015160001960f88460031b161c1916905538808061028c565b8385015186558b9790950194938401930161027b565b9091508880528389208580850160051c82019286861061030d575b918991869594930160051c01915b8281106102ff57505061008d565b8b81558594508991016102f1565b925081926102e3565b634e487b7160e01b88526022600452602488fd5b93607f1693610078565b634e487b7160e01b600052604160045260246000fd5b600080fdfe6080604081815260048036101561001557600080fd5b600092833560e01c90816301ffc9a7146109f75750806306fdde031461092a578063081812fc146108f1578063095ea7b31461081757806323b872dd146107ff57806340d097c31461059057806342842e0e146105615780636352211e1461053157806370a08231146104dc578063715018a6146104885780638da5cb5b1461046057806395d89b4114610343578063a22cb465146102a2578063b88d4fde1461020e578063c87b56dd146101bb578063e985e9c5146101695763f2fde38b146100de57600080fd5b34610165576020366003190112610165576100f7610aa3565b90610100610d65565b6001600160a01b0380921692831561014f575050600654826001600160a01b0319821617600655167f8be0079c531659141344cd1fd0a4f28419497f9722a3daafe3b4186f6b6457e08380a380f35b51631e4fbdf760e01b8152908101849052602490fd5b8280fd5b5050346101b757806003193601126101b75760ff81602093610189610aa3565b610191610abe565b6001600160a01b0391821683526005875283832091168252855220549151911615158152f35b5080fd5b509190346101b75760203660031901126101b7576101dc61020a9335610d2a565b508181516101e981610b09565b528051916101f683610b09565b825251918291602083526020830190610a63565b0390f35b50903461016557608036600319011261016557610229610aa3565b610231610abe565b60443591856064359567ffffffffffffffff87116101b757366023880112156101b7578601359561026d61026488610b5d565b96519687610b3b565b86865236602488830101116101b7578661029f97602460209301838901378601015261029a838383610b79565b610d91565b80f35b5090346101655780600319360112610165576102bc610aa3565b906024359182151580930361033f576001600160a01b031692831561032a5750338452600560205280842083855260205280842060ff1981541660ff8416179055519081527f17307eab39ab6107e8899845ad3d59bd9653f200f220920489ca2b5937696c3160203392a380f35b836024925191630b61174360e31b8352820152fd5b8480fd5b50913461045d578060031936011261045d5781519181600192600154938460011c9160018616958615610453575b6020968785108114610440578899509688969785829a5291826000146104195750506001146103bd575b50505061020a92916103ae910385610b3b565b51928284938452830190610a63565b9190869350600183527fb10e2d527612073b26eecdfd717e6a320cf44b4afac2b0732d9fcbe2b7fa0cf65b82841061040157505050820101816103ae61020a61039b565b8054848a0186015288955087949093019281016103e8565b60ff19168782015293151560051b860190930193508492506103ae915061020a905061039b565b634e487b7160e01b835260228a52602483fd5b92607f1692610371565b80fd5b5050346101b757816003193601126101b7576020906001600160a01b03600654169051908152f35b833461045d578060031936011261045d576104a1610d65565b806001600160a01b0360065481198116600655167f8be0079c531659141344cd1fd0a4f28419497f9722a3daafe3b4186f6b6457e08280a380f35b50913461045d57602036600319011261045d576001600160a01b036104ff610aa3565b1692831561051c5750806020938392526003845220549051908152f35b91516322718ad960e21b815291820152602490fd5b50913461045d57602036600319011261045d57506001600160a01b0361055960209335610d2a565b915191168152f35b5050346101b75761029f9061057536610ad4565b9192519261058284610b09565b85845261029a838383610b79565b5034610165576020918260031936011261077c576105ac610aa3565b60075460001992918382146107ec57600182016007558251906105ce82610b09565b8782526001600160a01b03948582169586156107d557868591828c5260028b52878c205416801515938461079e575b50818c5260038b52878c2080546001019055828c5260028b52878c20805473ffffffffffffffffffffffffffffffffffffffff1916831790557fddf252ad1be2c89b69c2b068fc378daa952ba7f163c4a11628f55a4df523b3ef8c80a4610787573b610667578680f35b856106a4918495969798945180938192630a85bd0160e11b96878452338c8501528860248501526044840152608060648401526084830190610a63565b038186895af1839181610743575b5061070d5750503d15610705573d6106c981610b5d565b906106d684519283610b3b565b81528091863d92013e5b805194856106ff57505051633250574960e11b81529182015260249150fd5b85925001fd5b5060606106e0565b9195506001600160e01b03199091160361072e575050503880808080808680f35b51633250574960e11b81529182015260249150fd5b9091508781813d8311610780575b61075b8183610b3b565b8101031261077c57516001600160e01b03198116810361077c5790386106b2565b8380fd5b503d610751565b83516339e3563760e11b8152808701899052602490fd5b6107bf84600052600460205260406000206001600160a01b03198154169055565b818d5260038c52888d20908154019055386105fd565b8551633250574960e11b81528089018b9052602490fd5b634e487b7160e01b875260118552602487fd5b833461045d5761029f61081136610ad4565b91610b79565b509034610165578060031936011261016557610831610aa3565b9160243561083e81610d2a565b331515806108de575b806108b6575b6108a05781906001600160a01b03809616958691167f8c5be1e5ebec7d5bd14f71427d1e84f3dd0314c0f7b2291e5b200ac8c7c3b9258880a484526020528220906001600160a01b031982541617905580f35b835163a9fbf51f60e01b81523381850152602490fd5b506001600160a01b0381168652600560205283862033875260205260ff84872054161561084d565b50336001600160a01b0382161415610847565b50346101655760203660031901126101655781602093826001600160a01b03933561091b81610d2a565b50825285522054169051908152f35b50913461045d578060031936011261045d578151918182549260018460011c91600186169586156109ed575b6020968785108114610440578899509688969785829a5291826000146104195750506001146109925750505061020a92916103ae910385610b3b565b91908693508280527f290decd9548b62a8d60345a988386fc84ba6bc95484008f6362f93160ef3e5635b8284106109d557505050820101816103ae61020a61039b565b8054848a0186015288955087949093019281016109bc565b92607f1692610956565b92505034610165576020366003190112610165573563ffffffff60e01b811680910361016557602092506380ac58cd60e01b8114908115610a52575b8115610a41575b5015158152f35b6301ffc9a760e01b14905038610a3a565b635b5e139f60e01b81149150610a33565b919082519283825260005b848110610a8f575050826000602080949584010152601f8019910116010190565b602081830181015184830182015201610a6e565b600435906001600160a01b0382168203610ab957565b600080fd5b602435906001600160a01b0382168203610ab957565b6060906003190112610ab9576001600160a01b03906004358281168103610ab957916024359081168103610ab9579060443590565b6020810190811067ffffffffffffffff821117610b2557604052565b634e487b7160e01b600052604160045260246000fd5b90601f8019910116810190811067ffffffffffffffff821117610b2557604052565b67ffffffffffffffff8111610b2557601f01601f191660200190565b90916001600160a01b03809316928315610d1157600092828452826020956002875260409684888820541696879133151580610c7b575b509060027fddf252ad1be2c89b69c2b068fc378daa952ba7f163c4a11628f55a4df523b3ef9284610c43575b858352600381528b83208054600101905586835252898120805473ffffffffffffffffffffffffffffffffffffffff19168517905580a41692838303610c225750505050565b6064945051926364283d7b60e01b8452600484015260248301526044820152fd5b610c6487600052600460205260406000206001600160a01b03198154169055565b848352600381528b83208054600019019055610bdc565b91939450915080610cd0575b15610c9757859291879138610bb0565b878688610cb4576024915190637e27328960e01b82526004820152fd5b604491519063177e802f60e01b82523360048301526024820152fd5b503387148015610cf5575b80610c875750858252600481523385898420541614610c87565b5086825260058152878220338352815260ff8883205416610cdb565b604051633250574960e11b815260006004820152602490fd5b8060005260026020526001600160a01b0360406000205416908115610d4d575090565b60249060405190637e27328960e01b82526004820152fd5b6001600160a01b03600654163303610d7957565b60405163118cdaa760e01b8152336004820152602490fd5b813b610d9e575b50505050565b6001600160a01b0394919293948093169360405193630a85bd0160e11b9283865233600487015216602485015260448401526080606484015282610de86020966084830190610a63565b039285816000958187895af1849181610e91575b50610e5c575050503d600014610e54573d610e1681610b5d565b90610e246040519283610b3b565b81528091843d92013e5b80519283610e4f57604051633250574960e11b815260048101849052602490fd5b019050fd5b506060610e2e565b919450915063ffffffff60e01b1603610e79575038808080610d98565b60249060405190633250574960e11b82526004820152fd5b9091508681813d8311610eca575b610ea98183610b3b565b8101031261033f57516001600160e01b03198116810361033f579038610dfc565b503d610e9f56fea264697066735822122049f98c5fbf247d44e5a9538eaf51970f961e29e377dab784ceb9c603154bf3be64736f6c63430008190033",
  "linkReferences": {},
  "deployedLinkReferences": {}
}